{
    "contractName": "EtherPKI",
    "abi": [
        {
            "anonymous": false,
            "inputs": [
                {
                    "indexed": true,
                    "internalType": "uint256",
                    "name": "attributeID",
                    "type": "uint256"
                },
                {
                    "indexed": true,
                    "internalType": "address",
                    "name": "owner",
                    "type": "address"
                },
                {
                    "indexed": false,
                    "internalType": "string",
                    "name": "attributeType",
                    "type": "string"
                },
                {
                    "indexed": false,
                    "internalType": "bool",
                    "name": "hasProof",
                    "type": "bool"
                },
                {
                    "indexed": true,
                    "internalType": "bytes32",
                    "name": "identifier",
                    "type": "bytes32"
                },
                {
                    "indexed": false,
                    "internalType": "string",
                    "name": "data",
                    "type": "string"
                },
                {
                    "indexed": false,
                    "internalType": "string",
                    "name": "dataHash",
                    "type": "string"
                }
            ],
            "name": "AttributeAdded",
            "type": "event"
        },
        {
            "anonymous": false,
            "inputs": [
                {
                    "indexed": true,
                    "internalType": "uint256",
                    "name": "signatureID",
                    "type": "uint256"
                },
                {
                    "indexed": true,
                    "internalType": "address",
                    "name": "signer",
                    "type": "address"
                },
                {
                    "indexed": true,
                    "internalType": "uint256",
                    "name": "attributeID",
                    "type": "uint256"
                },
                {
                    "indexed": false,
                    "internalType": "uint256",
                    "name": "expiry",
                    "type": "uint256"
                }
            ],
            "name": "AttributeSigned",
            "type": "event"
        },
        {
            "anonymous": false,
            "inputs": [
                {
                    "indexed": true,
                    "internalType": "uint256",
                    "name": "revocationID",
                    "type": "uint256"
                },
                {
                    "indexed": true,
                    "internalType": "uint256",
                    "name": "signratureID",
                    "type": "uint256"
                }
            ],
            "name": "SignatureRevoked",
            "type": "event"
        },
        {
            "inputs": [
                {
                    "internalType": "string",
                    "name": "attributeType",
                    "type": "string"
                },
                {
                    "internalType": "bool",
                    "name": "hasProof",
                    "type": "bool"
                },
                {
                    "internalType": "bytes32",
                    "name": "identifier",
                    "type": "bytes32"
                },
                {
                    "internalType": "string",
                    "name": "data",
                    "type": "string"
                },
                {
                    "internalType": "string",
                    "name": "dataHash",
                    "type": "string"
                }
            ],
            "name": "addAttribute",
            "outputs": [
                {
                    "internalType": "uint256",
                    "name": "attributeID",
                    "type": "uint256"
                }
            ],
            "stateMutability": "nonpayable",
            "type": "function"
        },
        {
            "inputs": [
                {
                    "internalType": "uint256",
                    "name": "",
                    "type": "uint256"
                }
            ],
            "name": "attributes",
            "outputs": [
                {
                    "internalType": "address",
                    "name": "owner",
                    "type": "address"
                },
                {
                    "internalType": "string",
                    "name": "attributeType",
                    "type": "string"
                },
                {
                    "internalType": "bool",
                    "name": "hasProof",
                    "type": "bool"
                },
                {
                    "internalType": "bytes32",
                    "name": "identifier",
                    "type": "bytes32"
                },
                {
                    "internalType": "string",
                    "name": "data",
                    "type": "string"
                },
                {
                    "internalType": "string",
                    "name": "dataHash",
                    "type": "string"
                }
            ],
            "stateMutability": "view",
            "type": "function"
        },
        {
            "inputs": [
                {
                    "internalType": "uint256",
                    "name": "",
                    "type": "uint256"
                }
            ],
            "name": "revocations",
            "outputs": [
                {
                    "internalType": "uint256",
                    "name": "signatureID",
                    "type": "uint256"
                }
            ],
            "stateMutability": "view",
            "type": "function"
        },
        {
            "inputs": [
                {
                    "internalType": "uint256",
                    "name": "signatureID",
                    "type": "uint256"
                }
            ],
            "name": "revokeSignature",
            "outputs": [
                {
                    "internalType": "uint256",
                    "name": "revocationID",
                    "type": "uint256"
                }
            ],
            "stateMutability": "nonpayable",
            "type": "function"
        },
        {
            "inputs": [
                {
                    "internalType": "uint256",
                    "name": "attributeID",
                    "type": "uint256"
                },
                {
                    "internalType": "uint256",
                    "name": "expiry",
                    "type": "uint256"
                }
            ],
            "name": "signAttribute",
            "outputs": [
                {
                    "internalType": "uint256",
                    "name": "signatureID",
                    "type": "uint256"
                }
            ],
            "stateMutability": "nonpayable",
            "type": "function"
        },
        {
            "inputs": [
                {
                    "internalType": "uint256",
                    "name": "",
                    "type": "uint256"
                }
            ],
            "name": "signatures",
            "outputs": [
                {
                    "internalType": "address",
                    "name": "signer",
                    "type": "address"
                },
                {
                    "internalType": "uint256",
                    "name": "attributeID",
                    "type": "uint256"
                },
                {
                    "internalType": "uint256",
                    "name": "expiry",
                    "type": "uint256"
                }
            ],
            "stateMutability": "view",
            "type": "function"
        }
    ],
    "bytecode": "608060405234801561001057600080fd5b50610c92806100206000396000f3fe608060405234801561001057600080fd5b50600436106100625760003560e01c80633da1f79a1461006757806363da9cf8146100965780638be10194146100b9578063b181954d146100fe578063d05dcc6a146102c0578063ed0c80491461044c575b600080fd5b6100846004803603602081101561007d57600080fd5b5035610469565b60408051918252519081900360200190f35b610084600480360360408110156100ac57600080fd5b508035906020013561050f565b6100d6600480360360208110156100cf57600080fd5b5035610590565b604080516001600160a01b039094168452602084019290925282820152519081900360600190f35b610084600480360360a081101561011457600080fd5b81019060208101813564010000000081111561012f57600080fd5b82018360208201111561014157600080fd5b8035906020019184600183028401116401000000008311171561016357600080fd5b91908080601f016020809104026020016040519081016040528093929190818152602001838380828437600092019190915250929584351515956020860135959194509250606081019150604001356401000000008111156101c457600080fd5b8201836020820111156101d657600080fd5b803590602001918460018302840111640100000000831117156101f857600080fd5b91908080601f016020809104026020016040519081016040528093929190818152602001838380828437600092019190915250929594936020810193503591505064010000000081111561024b57600080fd5b82018360208201111561025d57600080fd5b8035906020019184600183028401116401000000008311171561027f57600080fd5b91908080601f0160208091040260200160405190810160405280939291908181526020018383808284376000920191909152509295506105ca945050505050565b6102dd600480360360208110156102d657600080fd5b50356109d5565b60405180876001600160a01b03166001600160a01b0316815260200180602001861515151581526020018581526020018060200180602001848103845289818151815260200191508051906020019080838360005b8381101561034a578181015183820152602001610332565b50505050905090810190601f1680156103775780820380516001836020036101000a031916815260200191505b50848103835286518152865160209182019188019080838360005b838110156103aa578181015183820152602001610392565b50505050905090810190601f1680156103d75780820380516001836020036101000a031916815260200191505b50848103825285518152855160209182019187019080838360005b8381101561040a5781810151838201526020016103f2565b50505050905090810190601f1680156104375780820380516001836020036101000a031916815260200191505b50995050505050505050505060405180910390f35b6100846004803603602081101561046257600080fd5b5035610bcd565b6000336001600160a01b03166001838154811061048257fe5b60009182526020909120600390910201546001600160a01b0316141561050a5750600280546001810182556000919091526104bb610beb565b600282815481106104c857fe5b506000908152604080516020810182528581529051909250849184917ff93d5095ac7696e643e1fa0aa35d622f4a13e11f4e199f30794679dcdcdb97379190a3505b919050565b600180548082018255600091909152610526610bfe565b6001828154811061053357fe5b506000525060408051606081018252338082526020828101879052828401869052835186815293519293879386927f33a100675c6cfc265cebfab4d4b7a2f432674dd9f2b1f042546fad9dcaffe215928290030190a45092915050565b6001818154811061059d57fe5b60009182526020909120600390910201805460018201546002909201546001600160a01b03909116925083565b600080546001810182559080526105df610c28565b600082815481106105ec57fe5b60009182526020918290206040805160c081018252600690930290910180546001600160a01b03168352600180820180548451601f600260001995841615610100029590950190921693909304908101879004870283018701909452838252939491938583019391929091908301828280156106a95780601f1061067e576101008083540402835291602001916106a9565b820191906000526020600020905b81548152906001019060200180831161068c57829003601f168201915b505050918352505060028281015460ff161515602080840191909152600384015460408085019190915260048501805482516101006001831615026000190190911694909404601f81018490048402850184019092528184526060909401939183018282801561075a5780601f1061072f5761010080835404028352916020019161075a565b820191906000526020600020905b81548152906001019060200180831161073d57829003601f168201915b505050918352505060058201805460408051602060026001851615610100026000190190941693909304601f81018490048402820184019092528181529382019392918301828280156107ee5780601f106107c3576101008083540402835291602001916107ee565b820191906000526020600020905b8154815290600101906020018083116107d157829003601f168201915b50505050508152505090503381600001906001600160a01b031690816001600160a01b0316815250508681602001819052508581604001901515908115158152505084816060018181525050838160800181905250828160a0018190525084336001600160a01b0316837f047cf141cc7263346dbeabf372ff57a4a47ce442cbd821d9e8e7654bc78080d58a8a89896040518080602001851515151581526020018060200180602001848103845288818151815260200191508051906020019080838360005b838110156108cc5781810151838201526020016108b4565b50505050905090810190601f1680156108f95780820380516001836020036101000a031916815260200191505b50848103835286518152865160209182019188019080838360005b8381101561092c578181015183820152602001610914565b50505050905090810190601f1680156109595780820380516001836020036101000a031916815260200191505b50848103825285518152855160209182019187019080838360005b8381101561098c578181015183820152602001610974565b50505050905090810190601f1680156109b95780820380516001836020036101000a031916815260200191505b5097505050505050505060405180910390a45095945050505050565b600081815481106109e257fe5b600091825260209182902060069091020180546001808301805460408051601f60026000199685161561010002969096019093169490940491820187900487028401870190528083526001600160a01b039093169550929390929190830182828015610a8f5780601f10610a6457610100808354040283529160200191610a8f565b820191906000526020600020905b815481529060010190602001808311610a7257829003601f168201915b5050505060028381015460038501546004860180546040805160206101006001851615026000190190931696909604601f8101839004830287018301909152808652969760ff90941696929550929392909190830182828015610b335780601f10610b0857610100808354040283529160200191610b33565b820191906000526020600020905b815481529060010190602001808311610b1657829003601f168201915b5050505060058301805460408051602060026001851615610100026000190190941693909304601f8101849004840282018401909252818152949594935090830182828015610bc35780601f10610b9857610100808354040283529160200191610bc3565b820191906000526020600020905b815481529060010190602001808311610ba657829003601f168201915b5050505050905086565b60028181548110610bda57fe5b600091825260209091200154905081565b6040518060200160405280600081525090565b604051806060016040528060006001600160a01b0316815260200160008152602001600081525090565b6040805160c0810182526000808252606060208301819052928201819052828201526080810182905260a08101919091529056fea264697066735822122029cfd06798be9980111ef8aa70bec2a78913b4fc3bfa815e12445bded0c3481c64736f6c63430006080033",
    "sourcePath": "/home/cole/bin/git/EtherPKI/SmartContract.sol",
    "compiler": {
        "name": "solc",
        "version": "0.6.8+commit.0bbfe453"
    },
    "functionHashes": {
        "addAttribute(string,bool,bytes32,string,string)": "b181954d",
        "attributes(uint256)": "d05dcc6a",
        "revocations(uint256)": "ed0c8049",
        "revokeSignature(uint256)": "3da1f79a",
        "signAttribute(uint256,uint256)": "63da9cf8",
        "signatures(uint256)": "8be10194"
    },
    "gasEstimates": {
        "creation": {
            "codeDepositCost": "643600",
            "executionCost": "676",
            "totalCost": "644276"
        },
        "external": {
            "addAttribute(string,bool,bytes32,string,string)": "infinite",
            "attributes(uint256)": "infinite",
            "revocations(uint256)": "2019",
            "revokeSignature(uint256)": "25300",
            "signAttribute(uint256,uint256)": "24326",
            "signatures(uint256)": "3675"
        }
    }
}